:020000040000fa
:10000000f07f00207d490300339a0300399a0300f2
:1000100000000000000000000000000000000000e0
:10002000000000000000000000000000ef130100cd
:100030000000000000000000ef130100ef130100ba
:10004000ef130100ef130100ef130100ef130100a4
:10005000cdd90200ef130100edc60200ef1301003d
:10006000ef130100f5c8010075b20100ef130100a4
:100070005db00100b5f701008d230300ef1301000f
:10008000ef130100ef1301000d690300ef130100ee
:10009000ef1301000000000000000000ef1301005a
:1000a000ef130100ef130100ef130100ef13010044
:020000040000fa
:1000b000f8b5c046f8bc08bc9e46704731580300ee
:1000c000f8b5c046f8bc08bc9e4670470958030006
:020000040000fa
:1000d0000c6902000100000084ae02000100000073
:020000040000fa
:1000e00082b0f0b5c64600b5e04ca54404af7861d7
:1000f000df48cc24a400a446bc44604401604260b4
:100100000422d02189008c4608218846b844c44482
:10011000624413607b69002b03d139f0b9f8030006
:100120009847d44bcc2292009446bc4463447a69ed
:1001300003ca03c30123c72189007a181360ce4b79
:10014000fb1800221a707b181b68002b01da0023b1
:10015000c2e0ca4bcc2080003a18d118c54b3a18df
:10016000d2180b0012ca12c3c44bcc229200944680
:10017000bc4463441b68c524a4003a191360c04bf7
:100180003a18d118bb4b3a18d2180b0022ca22c316
:10019000bb4bcc2292009446bc4463445b68c422af
:1001a0009200ba181360b74bfb1800221a70b64bb6
:1001b000cc2292009446bc44634400221a605a60e8
:1001c000b24b3a18d118b04b3a18d2180b0003cae8
:1001d00003c3ae4bcc2292009446bc4463441b68dc
:1001e000c22189007a181360a34bfb181b78002bdf
:1001f0001cd03b191b68002b05d03b191a687b18d3
:100200001b689a4207d1c4239b00fb181b685a4203
:100210005341dbb206e0c4239b00fb181b68db43a1
:10022000db0fdbb2974aba1813701de0c5229200ab
:10023000bb181b68002b0fd0bb181a68c2239b0089
:10024000fb181b689a4207d0c4239b00fb181b684d
:10025000002b01db012200e000228a4bfb181a7000
:100260001a7801210a401a7001235b42c1229200d0
:10027000b9180b60834bfb181b78002b0fd0bb18f1
:100280001a68c5239b00fb181b68d31a1a00c423e5
:100290009b00fb181b689a4201d3012200e0002258
:1002a00078483b181a701a7801210a401a703b18d6
:1002b0001b78002b0bd0c7239b00fb181a68c423a4
:1002c0009b00fb181b689a4201dc012300e000231d
:1002d0001a1c01231340dbb201225340dbb2002b76
:1002e00003d038f0d5ff03009847694bcc22920029
:1002f000b918c9185e4bba18d2180b0003ca03c349
:100300000023c02189007a181360624bfb18002279
:100310001a707b181b68002b01da0023e3e05e4ba8
:10032000cc2080003a18d118594b3a18d2180b003b
:1003300012ca12c3584bcc2292009446bc44634468
:100340001b68be24a4003a191360544b3a18d11804
:100350004f4b3a18d2180b0022ca22c34f4bcc2263
:1003600092009446bc4463445b68bd229200ba1874
:1003700013604b4bfb1800221a704a4bcc229200a0
:100380009446bc44634400221a605a60464b3a18b3
:10039000d118444b3a18d2180b0003ca03c3424b7e
:1003a000cc2292009446bc4463441b68bb21890064
:1003b0007a181360374bfb181b78002b1cd03b19a5
:1003c0001b68002b05d03b191a687b181b689a42e2
:1003d00007d1bd239b00fb181b685a425341dbb277
:1003e00006e0bd239b00fb181b68db43db0fdbb281
:1003f0002b4aba1813701de0be229200bb181b686e
:10040000002b0fd0bb181a68bb239b00fb181b687e
:100410009a4207d0bd239b00fb181b68002b01db11
:10042000012200e000221e4bfb181a701a780121ed
:100430000a401a7001235b42ba229200b9180b607d
:10044000174bfb181b78002b30d0bb181a68be2343
:100450009b00fb181b68d31a1a00bd239b00fb18d6
:100460001b689a4222d3012221e0c046c0fcffff54
:10047000dcfcffff98fdffff1b03000090fdffff6a
:1004800088fdffff0f0300002cfeffff80fdffff34
:10049000b8fdffffff020000b0fdffffa8fdffff5a
:1004a000f302000034feffffa0fdffff0022a8487a
:1004b0003b181a701a7801210a401a703b181b78f1
:1004c000002b0bd0c0239b00fb181a68bd239b0098
:1004d000fb181b689a4201dc012300e000231a1c70
:1004e00001231340dbb201225340dbb2002b03d0c7
:1004f00038f0cefe03009847964bcc229200ba18f3
:10050000d1180423d022920008208446bc446244bf
:10051000d2180b0003ca03c30023b92189007a183b
:1005200013608d4bfb1800221a707b181b68002b80
:1005300001da0023c2e0894bcc2080003a18d118a0
:10054000844b3a18d2180b0012ca12c3834bcc2228
:1005500092009446bc4463441b68b724a4003a1933
:1005600013607f4b3a18d1187a4b3a18d2180b0007
:1005700022ca22c37a4bcc2292009446bc446344e4
:100580005b68b6229200ba181360764bfb18002203
:100590001a70754bcc2292009446bc4463440022ee
:1005a0001a605a60714b3a18d1186f4b3a18d2182a
:1005b0000b0003ca03c36d4bcc2292009446bc448b
:1005c00063441b68b42189007a181360624bfb18de
:1005d0001b78002b1cd03b191b68002b05d03b1946
:1005e0001a687b181b689a4207d1b6239b00fb1838
:1005f0001b685a425341dbb206e0b6239b00fb184e
:100600001b68db43db0fdbb2564aba1813701de0e0
:10061000b7229200bb181b68002b0fd0bb181a68ba
:10062000b4239b00fb181b689a4207d0b6239b009b
:10063000fb181b68002b01db012200e00022494b64
:10064000fb181a701a7801210a401a7001235b42c4
:10065000b3229200b9180b60424bfb181b78002b99
:100660000fd0bb181a68b7239b00fb181b68d31a5e
:100670001a00b6239b00fb181b689a4201d3012283
:1006800000e0002237483b181a701a7801210a400e
:100690001a703b181b78002b0bd0b9239b00fb185a
:1006a0001a68b6239b00fb181b689a4201dc0123e1
:1006b00000e000231a1c01231340dbb20122534047
:1006c000dbb2002b03d038f0e3fd03009847d323bf
:1006d0009b0008229446bc4463441b68002b03d152
:1006e00038f0d6fd03009847214bcc229200944667
:1006f000bc4463441f4a03ca03c31f4bcc24a40059
:100700003a19d0181a4b3a19d2181723009300231c
:100710001168526821f0e4fc174bcc2292009446f9
:10072000bc446344154a391989181a685b6808681b
:1007300049682af0ddf80300cb229200b9180b605b
:10074000bb181b68002b1dd00d4b01f01df8c046d7
:10075000f3020000d8fdffffe3020000d0fdffff21
:10076000c8fdffffd70200003cfeffffc0fdfffffa
:10077000e0fdffff54a6010014feffffdcfcffffbd
:1007800001000580e14bcc2292009446bc446344b6
:10079000df4819685a6821f015fb0423d022920023
:1007a000944608229046b844c4446344d948196822
:1007b0005a6821f007fbd84bcc24a4003a19d11871
:1007c000d64b3a19d2180b0003ca03c3d24bcc2222
:1007d00092009446bc4463445968d14b3a19d018ee
:1007e000ca4b3a19d2180b001168526836f04dfa0c
:1007f00000239c2149007a181360ca4bcc22920036
:100800009446bc446344c84a21ca21c3c74b3a1921
:10081000d418c44bcc2292009446bc446344c04ad2
:10082000cc2080008446bc446244791802919e2109
:100830004900791801916946586808601b68116879
:100840005268200010f0dcfbd3239b000822944662
:10085000bc4463441b6808331a00b44bcc218900a4
:100860008c46bc446344186859681af0cbf80300fe
:10087000ca229200b9180b60bb181b68b22189000c
:10088000781803607b181b68db0fdbb2002b03d0ea
:10089000bb181b6800f078ffa54bcc229200944651
:1008a000bc446344a34a03ca03c3a14bcc229200b5
:1008b0009446bc4463449a4acc24a400391989184c
:1008c0001a685b68086849682af012f80300cb25ab
:1008d000ad007a1913607b191b68013300d17ee0eb
:1008e000954b20003a18d118914b3a18d2180b00aa
:1008f00012ca12c3904bcc2292009446bc4463446b
:100900005a687b191b68d118854b0600ba19d41890
:100910003800834bba19d2180b001168526836f0b0
:10092000b4f9864bba19d218230003ca03c3844b07
:10093000cc2292009446bc446344824a03ca03c357
:100940007a4bba19d4183d007d4bcc2292009446c4
:10095000bc446344724acc2189008c46bc44624446
:100960009c214900791802919e2149007918019132
:100970006946586808601b6811685268280010f0c2
:100980003ffb6e4bba19d218230003ca03c3d3230b
:100990009b0008229446bc4463441b680c331a0035
:1009a000624bcc2189008c46bc446344186859686a
:1009b0001af028f80300c9229200b9180b60bb187e
:1009c0001b68b1218900781803607b181b68db0f56
:1009d000dbb2002b0cd0bb181b6800f0d5fed32374
:1009e0009b0008229446bc4463441b680022da60e2
:1009f000554bcc2080003a18d1180423d022920005
:100a00000824a446bc446244d2180b0012ca12c384
:100a1000d3239b0008229446bc4463441b68af2246
:100a20009200ba181360484b3a18d2184823f818a5
:100a30000023116852682cf045fa0300ae229200a0
:100a4000b9180b60bb181b68ad21890078180360ca
:100a50007b181b68db0fdbb2002b03d0bb181b68b5
:100a600000f07dfe4823fb18180024f0a7fb0300cc
:100a7000ac229200b9180b60bb181b68ab2189002f
:100a8000781803607b181b68db0fdbb2002b03d0e8
:100a9000bb181b6800f063fe2c4bcc2292009446de
:100aa000bc4463441b7a012b02d0294b00f057fe53
:100ab000284bcc2292009446bc4463441800302357
:100ac0001a00002138f0b2fdaf239b00fb181b6811
:100ad000204acc2189008c46bc446244103313ca9e
:100ae00013c313ca13c313ca13c313ca13c31a4bb2
:100af000fb1800221a70194bfb1800221a70184bb1
:100b0000fb1800221a7000f0d5fdc046dcfcffff88
:100b10000100060002000600e8fdffff14feffffd3
:100b20000cfeffff1cfeffffc0a6010000feffff42
:100b3000f8fdffffd8a60100f0fdffffd0fcffff8e
:100b400024feffffe4a6010078fdffff18fdffff74
:100b500005000180e8fcffffab020000aa020000d4
:100b6000a9020000db4bcc2292009446bc446344b3
:100b7000d94a03ca03c3d74bcc2292009446bc4443
:100b800063444824381919685a680ff041fe031e5f
:100b900040d03b19180024f011fb0300a922920059
:100ba000b9180b60bb181b68a8218900781803606e
:100bb0007b181b68db0fdbb2002b03d0bb181b6854
:100bc00000f0cdfdc54bcc2292009446bc4463445a
:100bd0001b7a062b02d0c24b00f0c1fdaf239b0055
:100be000fb181968bd4bcc229200ba18d2180b0022
:100bf00003ca03c3bb4bfb1801221a70ba4abb18c5
:100c0000ba1812781a70b94abb18ba1812781a7042
:100c100000f050fdb64bcc2292009446bc44634495
:100c2000b44a03ca03c3b24bcc2292009446bc44dc
:100c300063444824381919685a680ff0e9fd031e07
:100c400059d03b19180024f0b9fa0300a7229200ea
:100c5000b9180b60bb181b68a621890078180360bf
:100c60007b181b68db0fdbb2002b03d0bb181b68a3
:100c700000f075fd994bcc2292009446bc4463442d
:100c80001b7a062b02d0964b00f069fdaf239b0028
:100c9000fb181b680a331a00904bcc2189008c4644
:100ca000bc4463441868596807f032fd0300a5226c
:100cb0009200b9180b60bb181b68a4218900781832
:100cc00003607b181b68db0fdbb2002b03d0bb1863
:100cd0001b6800f044fd844bfb1801221a70814a06
:100ce000bb18ba1812781a70804abb18ba18127852
:100cf0001a7000f0dffc804bcc2292009446bc447a
:100d000063447e4a03ca03c37b4bcc2292009446c1
:100d1000bc4463444824381919685a680ff078fdb8
:100d2000031e00d1dce23b19180024f047fa03004f
:100d3000a3229200b9180b60bb181b68a22189007e
:100d4000781803607b181b68db0fdbb2002b03d025
:100d5000bb181b6800f003fdaf239b00fb181b684a
:100d600010334822ba18a121890078180260a02205
:100d70009200ba1813607b181b681b7a012b01d0f4
:100d80005f4b72e25f4bfb1800221a705e4bfb1840
:100d900000221a7025e2a124a4003b1918685b4bbd
:100da000cc2292009446bc446344594a22ca22c3ce
:100db000564bcc2292009446bc44634419685a684e
:100dc0000ff026fd031e35d03b191b68180024f0d8
:100dd000f5f903009e229200b9180b60bb181b683e
:100de0009d218900781803607b181b68db0fdbb23c
:100df000002b02d0bb181b6837e2a1239b00fb1815
:100e00001b681b7a062b01d0354b2ee2a0239b00da
:100e1000fb181b68a1229200ba18126803ca03c308
:100e2000384bfb1801221a70374abb18ba181278cf
:100e30001a70d6e1a124a4003b191868354bcc22c6
:100e400092009446bc446344334a22ca22c3314bc5
:100e5000cc2292009446bc44634419685a680ff04f
:100e6000d7fc031e5ad03b191b68180024f0a6f9c2
:100e700003009c229200b9180b60bb181b689b21d1
:100e80008900781803607b181b68db0fdbb2002b2e
:100e900002d0bb181b68e8e1a1239b00fb181b686c
:100ea0001b7a062b01d00e4bdfe1a0239b00fb1821
:100eb0001b68a1229200ba181268083303ca03c340
:100ec000114bfb1801221a700e4abb18ba1812787f
:100ed0001a7086e19cfefffff8a6010018fdffffd7
:100ee00004000180ab020000aa020000a902000079
:100ef00094feffff08a701008cfeffff24a701005e
:100f0000050001807f0200007e0200004cfeffff12
:100f100038a7010054feffff4ca70100a124a40044
:100f20003b191868e24bcc2292009446bc446344bf
:100f3000e04a22ca22c3de4bcc2292009446bc4433
:100f4000634419685a680ff063fc031e37d03b19dd
:100f50001b68180024f032f903009a229200b91895
:100f60000b60bb181b6899218900781803607b18f7
:100f70001b68db0fdbb2002b02d0bb181b6874e1cf
:100f8000a1239b00fb181b681b7a062b01d0ca4bc0
:100f90006be1a0239b00fb181b68a1229200ba18ea
:100fa0001268183303ca03c3c44abb18ba181278ac
:100fb0001a70c34abb18ba1812781a7011e1a1242a
:100fc000a4003b191868bf4bcc2292009446bc4445
:100fd0006344bd4a22ca22c3ba4bcc229200944633
:100fe000bc44634419685a680ff012fc031e37d0e2
:100ff0003b191b68180024f0e1f8030098229200c6
:10100000b9180b60bb181b6897218900781803601a
:101010007b181b68db0fdbb2002b02d0bb181b68f0
:1010200023e1a1239b00fb181b681b7a062b01d030
:10103000a14b1ae1a0239b00fb181b68a122920080
:10104000ba181268283303ca03c39c4abb18ba18db
:1010500012781a709a4abb18ba1812781a70c0e03f
:10106000a1239b00fb181b689624a4003a19136067
:10107000a0239b00fb181b6895229200ba181360ee
:101080003b191868914bcc2292009446bc446344af
:101090008f4a22ca22c38d4bcc2292009446bc4474
:1010a000634419685a680ff0b3fb031e51d03b1913
:1010b0001b68180024f082f8030094229200b918eb
:1010c0000b60bb181b6893218900781803607b189c
:1010d0001b68db0fdbb2002b02d0bb181b6839e0aa
:1010e00096239b00fb181a6895239b00fb181b682e
:1010f00014331900100025f009fd0300922292001c
:10110000b9180b60bb181b6891218900781803601f
:101110007b181b68db0fdbb2002b02d0bb181b68ef
:1011200018e09524a4003b191b685b69902292008b
:10113000b9180b60bb181a68fa23990010002ff039
:101140008ffc03009ab23b191b681a8280235b0252
:1011500000e0594b8f229200b9180b60bb181b6836
:101160008e229200b9180b60bb181b68db0fdbb234
:101170005a1e9341dbb201225340dbb21a1c0123f9
:101180001340dbb24d4c3a193919097811704c4da6
:101190007a19791909781170002b22d1a1239b00ab
:1011a000fb181b6818002ef0d1fe03008d20800074
:1011b0003a1813603b181b688c229200b9180b6018
:1011c000bb181b68db0fdbb23a19391909781170ab
:1011d0007a19791909781170002b02d03b181b6815
:1011e00043e0374bfb181b7801225340dbb2002b46
:1011f00007d1324bfb181b7801225340dbb2002b86
:1012000027d0a124a4003b191b68180023f0d6ffa7
:1012100003008b229200b9180b60bb181b688a224e
:101220009200b9180b60bb181b68db0fdbb25a1eab
:101230009341dbb201225340dbb21a1c012313405d
:10124000dbb2002b05d03b191b681b7a022b00d0a8
:10125000a1e51b4bfa18194bfb1812781b789a4220
:1012600001d0154b01e080235b02892080003a18f1
:1012700013603b181b6888229200b9180b60bb18da
:101280001b68db0fdbb213497a18791809781170e3
:1012900011497a1879180978117010497a18791853
:1012a00009781170002b00d104e23b181b6856e24c
:1012b0005cfeffff64a70100040001807f020000c4
:1012c0007e02000064feffff84a701006cfeffffaa
:1012d00098a70100ab020000aa020000a9020000ca
:1012e000d34bcc2292009446bc446344d14a03caf7
:1012f00003c3cf4bcc2292009446bc4463444824a1
:10130000381919685a680ff083fa031e3fd03b1949
:10131000180023f053ff030087229200b9180b60d6
:10132000bb181b6886218900781803607b181b682e
:10133000db0fdbb2002b02d0bb181b680fe2be4be9
:10134000cc2292009446bc4463441b7a062b01d005
:10135000ba4b04e2af239b00fb181b68b64acc21b2
:1013600089008c46bc446244303303ca03c3b44a88
:10137000bb18ba1812781a70b24abb18ba18127889
:101380001a70b14abb18ba1812781a7092e1af4bb2
:10139000cc2292009446bc446344ad4a03ca03c3c2
:1013a000aa4bcc2292009446bc446344482438198a
:1013b00019685a680ff02cfa031e3fd03b19180029
:1013c00023f0fcfe030085229200b9180b60bb18c5
:1013d0001b6884218900781803607b181b68db0f69
:1013e000dbb2002b02d0bb181b68b8e1924bcc22b9
:1013f00092009446bc4463441b7a062b01d08f4b69
:10140000ade1af239b00fb181b688b4acc21890000
:101410008c46bc446244283303ca03c3884abb18c1
:10142000ba1812781a70874abb18ba1812781a704c
:10143000854abb18ba1812781a703be1854bcc224a
:1014400092009446bc446344834a03ca03c3814b5d
:10145000cc2292009446bc4463444824381919684d
:101460005a680ff0d5f9031e3fd03b19180023f03e
:10147000a5fe030083229200b9180b60bb181b68fd
:1014800082218900781803607b181b68db0fdbb2b0
:10149000002b02d0bb181b6861e1674bcc22920085
:1014a0009446bc4463441b7a062b01d0634b56e13f
:1014b000af239b00fb181b685f4acc2189008c4638
:1014c000bc446244383303ca03c35d4abb18ba182c
:1014d00012781a705b4abb18ba1812781a705a4af6
:1014e000bb18ba1812781a70e4e0af239b00fb18ff
:1014f0001b6810334822ba188124a40039190a60e5
:1015000080229200ba1813603b191868534bcc2202
:1015100092009446bc446344514a22ca22c34f4bb2
:10152000cc2292009446bc44634419685a680ff078
:101530006ff9031e51d03b191b68180023f03efec3
:101540000300fe225200b9180b60bb181b68fc2177
:101550004900781803607b181b68db0fdbb2002b97
:1015600002d0bb181b6839e081239b00fb181a6866
:1015700080239b00fb181b6814331900100025f012
:10158000c5fa0300fa225200b9180b60bb181b6899
:10159000f8214900781803607b181b68db0fdbb269
:1015a000002b02d0bb181b6818e08024a4003b1954
:1015b0001b685b69f6225200b9180b60bb181a68e9
:1015c000fa23990010002ff04bfa03009ab23b194e
:1015d0001b681a8280235b0200e0184bf422520041
:1015e000b9180b60bb181b68f2225200b9180b60c7
:1015f000bb181b68db0fdbb25a1e9341dbb2012222
:101600005340dbb21a1c01231340dbb2002b29d05c
:101610000d4bfb1801221a70094abb18ba18127830
:101620001a70084abb18ba1812781a7042e0c046fd
:1016300084feffffaca7010018fdffff040001803e
:10164000ab020000aa020000a90200007cfeffff1e
:10165000bca7010074feffffd4a7010044fefffffa
:1016600098a701004823fb1818002ef06ffc030018
:10167000f02040003a1813603b181b68ee2252001d
:10168000b9180b60bb181b68db0fdbb244497a1832
:1016900079180978117043497a1879180978117006
:1016a00041497a18791809781170002b02d03b183b
:1016b0001b6854e04823fb18180023f07ffd03004b
:1016c000ec225200b9180b60bb181b68ea225200ca
:1016d000b9180b60bb181b68db0fdbb25a1e9341b5
:1016e000dbb201225340dbb21a1c01231340dbb2f0
:1016f000002b0ad02d4bcc2292009446bc4463446c
:101700001b7a022b01d0fff72dfa264bfb181b7812
:1017100001225340dbb2002b07d1214bfb181b7871
:1017200001225340dbb2002b17d0af2189007b1878
:101730001b6800221a607b181b6800225a607b1805
:101740001b6803229a72184bfb181b780122534026
:10175000dbb2002b01d0164b01e080235b02c822d4
:101760009200b9180b60bb181b68b021890078186b
:1017700003607b181b68db0fdbb2002b02d0bb18a9
:101780001b6801e080235b021800bd46cc239b0050
:101790009d4404bc9046f0bc08bc02b01847c0464b
:1017a000ab020000aa020000a902000018fdffff22
:0417b00004000180b0
:020000040000fa
:1017b4001b5b33376d20204e4f4e451b5b33376d1b
:1017c4000000c0461b5b33316d204552524f521b03
:1017d4005b33376d0000c0461b5b33336d202057ed
:1017e40041524e1b5b33376d0000c0461b5b3336e2
:1017f4006d2044454255471b5b33376d0000c0469e
:101804001b5b33376d2020494e464f1b5b32376dcf
:101814001b5b33376d00c0461b5b33376d20494e6d
:10182400464f1b5b33376d001b5b33326d20474fd4
:101834004f441b5b33376d001b5b33336d205741c3
:10184400524e1b5b33376d001b5b33316d1b5b37b3
:101854006d4552524f521b5b32376d1b5b33376df4
:101864000000c046696e697469616c5f67657400e5
:1018740074656d7065726174757265006c69676812
:101884007400c04674656c656d657472795f4c6ee6
:101894006700c04674656c656d657472795f426fec
:1018a4006f6c000074656c656d657472795f537458
:1018b400725f310074656c656d657472795f537421
:1018c400725f320074656c656d657472795f537410
:1018d400725f330074656c656d657472795f5374ff
:1018e400725f340074656c656d65747279496e74e9
:1018f400657276616c00c046627574746f6e5f6564
:1019040076656e740000c046627574746f6e5f6ea7
:10191400616d650053573000535731007072657321
:10192400735f636f756e74006c65645f6200c046bc
:101934006c65645f6700c0466c65645f7900c0468f
:101944006c65645f7200c04664656275674c657659
:10195400656c000069704164647265737300c0460d
:1019640070726f70657274795f31000070726f709d
:10197400657274795f32000070726f706572747989
:101984005f33000070726f70657274795f340000a9
:101994006669726d7761726556657273696f6e0000
:1019a40064697361626c6554656c656d65747279a4
:1019b4000000c04653756363657373007265626f9c
:1019c4006f74000064656c617900c046737461745f
:1019d4007573000044656c61792074696d652069d4
:1019e4007320656d7074792e205370656369667910
:1019f400202764656c61792720696e20706572699f
:101a04006f6420666f726d617420285054355320c2
:101a1400666f7220352073656329000044656c612c
:101a2400792074696d6520696e2077726f6e672006
:101a3400666f726d61742e205370656369667920d8
:101a44002764656c61792720696e20706572696fff
:101a54006420666f726d617420285054355320667b
:101a64006f722035207365632900c0464572726f1a
:101a7400722070726f63657373696e6720636f6d34
:101a84006d616e640000c0467b225374617475738b
:101a9400223a22556e737570706f727465642043b8
:101aa4006f6d6d616e64227d0000c04673656e6467
:101ab4004d73670073656e644d7367537472696e1a
:101ac4006700c0464d6573736167652073747269fe
:101ad4006e6720697320656d7074792e205370656c
:101ae4006369667920737472696e672e0000c0465c
:101af4004661696c656420746f20616c6c6f63610e
:101b04007465206d656d6f727920666f72207468dc
:101b140065206d6573736167652e0000415a5552e7
:101b2400453a20427574746f6e2053573020436fca
:101b3400756e7420256c751b5b306d00415a5552cf
:101b4400453a20427574746f6e2053573120436fa9
:101b5400756e7420256c751b5b306d00415a5552af
:101b6400453a2054656c656d6574727920646973b7
:101b740061626c65641b5b306d00c0464661696cd4
:101b8400656420746f206275696c642073656e737c
:101b94006f722074656c656d65747279204a534f59
:101ba4004e207061796c6f61641b5b306d00c046c0
:101bb400415a5552453a2025731b5b306d00c0468f
:101bc400415a5552453a2025732829204c45442032
:101bd40053746174757320307825781b5b306d0005
:101be400415a5552453a20556e61626c6520746fb6
:101bf4002067657420636f6d6d616e642072657318
:101c0400706f6e7365207075626c69736820746f91
:101c14007069631b5b306d00415a5552453a20434d
:101c24006f6d6d616e64205374617475733a202511
:101c3400751b5b306d00c046415a5552453a2052df
:101c440065626f6f74696e672e2e2e1b5b306d009c
:101c5400415a5552453a2025732829203a2050618b
:101c6400796c6f61642025731b5b306d0000c04686
:101c7400415a5552453a204572726f722067657415
:101c840074696e67206e65787420746f6b656e1b63
:101c94005b306d00415a5552453a204572726f725d
:101ca4002067657474696e6720737472696e671b4c
:101cb4005b306d00415a5552453a2025732829203e
:101cc4003a205061796c6f616420456d7074791ba2
:101cd4005b306d00415a5552453a205265626f6f30
:101ce400742044656c6179206e6f7420666f756e24
:101cf400641b5b306d00c046415a5552453a205230
:101d040065626f6f742044656c61792077726f6ec1
:101d14006720666f726d61741b5b306d0000c04696
:101d2400415a5552453a205363686564756c696e2f
:101d340067207265626f6f7420696e20256420735a
:101d440065631b5b306d0000415a5552453a20468d
:101d540061696c656420746f207363686564756c75
:101d640065207265626f6f742074696d65721b5ba8
:101d7400306d0000415a5552453a204d65737361e8
:101d8400676520737472696e67206e6f7420666f66
:101d9400756e641b5b306d00415a5552453a204db7
:101da40065737361676520746f6f2062696720666d
:101db4006f722054582042756666657220256c75d2
:101dc4001b5b306d0000c046415a5552453a2046cf
:101dd40061696c656420746f20616c6c6f636174fd
:101de40065206d656d6f727920666f72206d657305
:101df4007361676520737472696e67203a20536952
:101e04007a6520256c641b5b306d00000400c046bd
:101e1400415a5552453a2050726f63657373696e27
:101e24006720436f6d6d616e6420272573271b5bec
:101e3400306d0000415a5552453a204661696c653f
:101e4400642070726f636573735f7265626f6f7421
:101e54005f636f6d6d616e642c2073746174757350
:101e6400203078253038781b5b306d00415a55524c
:101e7400453a204661696c656420746f2062756917
:101e84006c64206572726f7220726573706f6e730a
:101e9400652e2028307825303878291b5b306d007a
:101ea400415a5552453a204661696c656420707206
:101eb4006f636573735f73656e644d73675f636fa0
:101ec4006d6d616e642c2073746174757320307849
:101ed400253038781b5b306d0000c046415a55529e
:101ee400453a20556e737570706f72746564206323
:101ef4006f6d6d616e642072656365697665643ac1
:101f04002025732e1b5b306d0000c046415a55528c
:101f1400453a20556e61626c6520746f2073656e5e
:101f24006420256420726573706f6e73652c207352
:101f340074617475732025641b5b306d0000c046aa
:101f4400415a5552453a2050726f70657274792027
:101f5400546f7069632020203a2025731b5b306d19
:101f64000000c046415a5552453a2050726f706580
:101f74007274792054797065202020203a202564d9
:101f84001b5b306d0000c046415a5552453a205003
:101f9400726f7065727479205061796c6f6164201e
:101fa4003a2025731b5b306d0000c046415a5552e0
:101fb400453a204661696c656420746f20706172d3
:101fc40073652070726f706572747920746f7069b4
:101fd40063203078253038782e1b5b306d00c04686
:101fe400415a5552453a20546f7069633a20272567
:101ff4007327205061796c6f61643a202725732719
:102004001b5b306d0000c046415a5552453a204989
:102014004e495449414c20474554205265636569f3
:102024007665641b5b306d00415a5552453a205029
:10203400726f7065727479204745542052656365e8
:10204400697665641b5b306d0000c046415a555289
:10205400453a2050726f7065727479204445534933
:102064005245442053746174757320256420566569
:102074007273696f6e2025731b5b306d0000c04660
:10208400415a5552453a2050726f706572747920e6
:102094005245504f52544544205374617475732013
:1020a40025642056657273696f6e2025731b5b303f
:1020b4006d00c046415a5552453a20547970652006
:1020c4002564205374617475732025642049442069
:1020d40025732056657273696f6e2025731b5b3000
:1020e4006d00c046617a5f6a736f6e5f726561648a
:1020f40065725f696e6974282920666f722067654e
:10210400742076657273696f6e206661696c6564ac
:102114001b5b306d0000c046617a5f696f745f704d
:102124006e705f636c69656e745f70726f706572f8
:1021340074795f6765745f70726f70657274795fcc
:1021440076657273696f6e2829206661696c6564af
:102154001b5b306d0000c046617a5f6a736f6e5f0f
:102164007265616465725f696e69742829206661ad
:10217400696c65641b5b306d0000c046257300000c
:10218400415a5552453a2052656365697665642023
:10219400756e6b6e6f776e2070726f706572747986
:1021a40020272573271b5b306d00c0464661696c90
:1021b400656420746f20676574207265717565733a
:1021c400742069641b5b306d0000c046415a55524f
:1021d400453a204e6f2070726f7065727479207565
:1021e40070646174651b5b306d00c046415a555282
:1021f400453a2053656e64696e672050726f70654e
:1022040072747920666c616720307825781b5b30a6
:102214006d00c046415a5552453a556e61626c652f
:1022240020746f20696e697469616c697a65206acb
:10223400736f6e2077726974657220666f72207096
:10224400726f70657274792050415443481b5b303f
:102254006d00c046415a5552453a20556e61626c34
:102264006520746f206164642070726f706572748d
:102274007920666f722074656c656d65747279205f
:10228400696e74657276616c2c2072657475726ef9
:1022940020636f6465203078253038781b5b306d9f
:1022a4000000c046415a5552453a20556e61626c51
:1022b4006520746f206164642070726f706572743d
:1022c4007920666f722059656c6c6f77204c454499
:1022d4002c2072657475726e20636f64652030788b
:1022e400253038781b5b306d0000c046415a55528a
:1022f400453a20556e61626c6520746f2061646498
:102304002070726f706572747920666f72204465f4
:10231400627567204c6576656c2c207265747572e5
:102324006e20636f6465203078253038781b5b300d
:102334006d00c046415a5552453a20556e61626c53
:102344006520746f206164642070726f70657274ac
:102354007920666f7220526564204c45442c2072ab
:10236400657475726e20636f646520203078253043
:1023740038781b5b306d0000415a5552453a205560
:102384006e61626c6520746f206164642070726f8a
:10239400706572747920666f7220426c7565204c8a
:1023a40045442c2072657475726e20636f646520d9
:1023b400203078253038781b5b306d00415a5552f7
:1023c400453a20556e61626c6520746f20616464c7
:1023d4002070726f706572747920666f7220477214
:1023e40065656e204c45442c2072657475726e20b0
:1023f400636f646520203078253038781b5b306d3e
:102404000000c046415a5552453a20556e61626cef
:102414006520746f206164642070726f70657274db
:102424007920666f72204950204164647265737329
:102434002c2072657475726e20636f646520203081
:1024440078253038781b5b306d00c046415a5552b0
:10245400453a20556e61626c6520746f2061646436
:102464002070726f706572747920666f722041708b
:1024740070204d43552050726f706572747920310d
:102484002c2072657475726e20636f646520203031
:1024940078253038781b5b306d00c046415a555260
:1024a400453a20556e61626c6520746f20616464e6
:1024b4002070726f706572747920666f722041703b
:1024c40070204d43552050726f70657274792032bc
:1024d4002c2072657475726e20636f6465202030e1
:1024e40078253038781b5b306d00c04670726f7091
:1024f4006572747920332c256c780400415a555246
:10250400453a20556e61626c6520746f2061646485
:102514002070726f706572747920666f72204170da
:1025240070204d43552050726f706572747920335a
:102534002c2072657475726e20636f646520307828
:10254400253038781b5b306d0000c04670726f70a8
:102554006572747920342c256c780400415a5552e4
:10256400453a20556e61626c6520746f2061646425
:102574002070726f706572747920666f722041707a
:1025840070204d43552050726f70657274792034f9
:102594002c2072657475726e20636f6465203078c8
:1025a400253038781b5b306d0000c046415a5552c7
:1025b400453a20556e61626c6520746f20616464d5
:1025c4002070726f706572747920666f7220546522
:1025d4006c656d657472792044697361626c6564bd
:1025e40020466c61672c2072657475726e20636f6f
:1025f4006465203078253038781b5b306d00c04628
:1026040025752e25752e25752e257500415a555292
:10261400453a20556e61626c6520746f2061646474
:102624002070726f706572747920666f72204669cb
:10263400726d776172652056657273696f6e2c20b6
:1026440072657475726e20636f646520203078251e
:102654003038781b5b306d00415a5552453a20554d
:102664006e61626c6520746f20617070656e6420a9
:10267400656e64206f626a6563742c20726574757c
:10268400726e20636f646520203078253038781ba3
:102694005b306d00415a5552453a205061796c6f58
:1026a400616420746f6f206c6f6e67203a2025641c
:1026b4001b5b306d0000c046415a5552453a466195
:1026c400696c656420746f206765742070726f7024
:1026d4006572747920504154434820746f70696363
:1026e4001b5b306d0000c04674656c656d6574726b
:1026f400795f496e745f25640000c04674656c653b
:102704006d657472795f44626c5f25640000c04635
:1027140074656c656d657472795f466c745f25646d
:102724000000c046747275650000c04666616c7333
:102734006500c046415a5552453a204361736520ad
:1027440073656e73697469766520626f6f6c656119
:102754006e2076616c7565206e6f742027747275b7
:102764006527206f72202766616c736527203a20e5
:1027740025731b5b306d0000415a5552453a205574
:102784006e6b6e6f776e2070726f706572747920e5
:0c279400636f6d6d616e641b5b306d0047
:020000040000fa
:1027a000904400201c0000000000000024340020a1
:1027b0000400000000000000744500200400000038
:1027c0000000000068480020040000000100000034
:1027d0002d9a0300ec410020600000000000000082
:1027e0001044002020000000000000006c48002081
:1027f0000400000001000000ffffffff0331002084
:1028000001000000000000000f4400200100000053
:1028100000000000784500200400000000000000d7
:102820007c45002004000000000000000121002081
:102830000100000000000000194500200100000018
:102840000000000000000020280000000000000040
:102850002446002001000000000000002546002062
:1028600001000000000000002646002001000000da
:10287000000000008045002004000000000000006f
:10288000844500200400000000000000884500206e
:1028900004000000000000008e4400200200000040
:1028a000000000008c450020040000000000000033
:1028b000d8480020020000000100000000010000d4
:1028c00027460020010000000000000028460020ec
:1028d00001000000000000009045002004000000fe
:1028e00000000000944500200400000000000000eb
:1028f0009845002004000000000000009c450020d6
:102900000400000000000000a045002004000000ba
:102910000000000044450020080000000000000006
:10292000d64800200100000001000000ff00000068
:10293000a44500200400000000000000a84500207d
:102940000400000000000000d74800200100000043
:10295000010000000400000002210020020000002d
:1029600000000000294600200100000000000000d7
:102970002a46002001000000000000002b46002035
:10298000010000000000000028000020bc00000042
:1029900000000000383b0020f400000000000000b0
:1029a000e400002004000000000000009847002020
:1029b0001800000001000000cd920300e99403001c
:1029c00085c4020049a30200bf570300fb94030023
:1029d0003c4800200c000000010000000000000046
:1029e0009847002000000000104700203000000041
:1029f00001000000000300006c000000a086010040
:102a000000000000000000000000000000000000c6
:102a10000000000000000000dc05000014000000c1
:102a2000e0470020e0470020140000000100000003
:102a3000856e03007b700300ed710300219003009d
:102a4000b9c70200ac4500200400000000000000ef
:102a5000e800002034000000000000001c010020fd
:102a60000400000000000000704800200400000086
:102a7000010000002b2f3d403044002020000000ca
:102a80000000000050440020200000000000000072
:102a90002001002020000000000000004001002074
:102aa000c000000000000000144300202c000000c3
:102ab00000000000404300202c0000000000000047
:102ac0002c46002001000000000000000002002051
:102ad0002c000000000000001a4500200200000049
:102ae00000000000383a0020000100000000000053
:102af0006c3d00208000000000000000fc1c002055
:102b000005040000000000004c4500200800000003
:102b100000000000ac4400201c0000000000000089
:102b2000ec3d002080000000000000000421002097
:102b300000040000000000002c020020380000000b
:102b400000000000640200200800000000000000f7
:102b5000544500200800000000000000042500206b
:102b60000004000000000000b04500200400000048
:102b700000000000b4450020040000000000000038
:102b80002c3c0020b0000000000000002c4500207c
:102b90000c000000000000007c1000200008000075
:102ba000000000002d460020010000000000000091
:102bb0002e46002001000000000000005c450020bf
:102bc0000800000000000000dc4200203800000087
:102bd000000000000431002020030000000000007d
:102be0004e4600200200000001000000010000002d
:102bf000b84500200400000000000000c44300208d
:102c00002800000000000000dc3c002090000000d4
:102c100000000000bc45002004000000000000008f
:102c20006c02002010000000000000007c02002068
:102c30004200000000000000c84400201c0000000a
:102c400000000000c045002004000000000000005b
:102c50000429002000040000000000007947002043
:102c60000100000001000000ff000000c44500203a
:102c70000400000000000000c8450020040000001f
:102c800000000000ec4300202300000000000000d2
:102c9000cc4500200400000000000000d0450020ca
:102ca0000400000000000000704400201e0000002e
:102cb00000000000e44400201b00000000000000b1
:102cc0002f460020010000000000000030460020d8
:102cd000010000000000000031460020010000005b
:102ce000000000003246002001000000000000004b
:102cf000334600200100000000000000d445002001
:102d00000400000000000000344600200100000024
:102d10000000000035460020010000000000000017
:102d2000744800200400000001000000ffffffffc6
:102d30003646002001000000000000007848002016
:102d40000400000001000000ffffffff37460020e5
:102d500001000000000000007c480020040000008a
:102d600001000000ffffffff3846002001000000c7
:102d70000000000080480020040000000100000066
:102d8000ffffffff394600200100000000000000a7
:102d9000844800200400000001000000ffffffff46
:102da0003a4600200100000000000000d845002045
:102db0000400000000000000c00200200400000029
:102dc000000000003b460020010000000000000061
:102dd000dc450020040000000000000088480020be
:102de000040000000100000010470020e045002022
:102df0000400000000000000d44800200200000091
:102e000001000000020000003c460020010000001c
:102e100000000000c40200200900000000000000c3
:102e20008c4800200400000001000000988c030082
:102e3000d0020020a001000000000000b0470020e8
:102e4000180000000100000079f20100e181030098
:102e5000597c01006df901001153020000000000cf
:102e60009c4200204000000000000000204600209e
:102e700002000000000000007004002018000000a4
:102e800000000000c84700201800000001000000fa
:102e9000a17e0300f1720300094801004d7c02008d
:102ea000f56b010000000000484800200c00000005
:102eb00001000000306e653132333435363738006a
:102ec0002246002002000000000000009048002080
:102ed0000400000001000000ffffffff94480020f5
:102ee0000400000001000000ffffffff8804002035
:102ef000b4050000000000003d4600200100000075
:102f0000000000003e46002001000000000000001c
:102f1000e445002004000000000000007a47002083
:102f2000010000000100000001000000984800209e
:102f30000400000001000000ffffffff9c4800208c
:102f40000400000001000000ffffffffa048002078
:102f50000400000001000000ffffffff3f460020cb
:102f600001000000000000004046002001000000b9
:102f700000000000414600200100000000000000a9
:102f8000e845002004000000000000003c0a00208a
:102f90002402000000000000a448002004000000fb
:102fa00001000000ffffffffa84800200400000010
:102fb00001000000ffffffffac48002004000000fc
:102fc00001000000ffffffff42460020010000005b
:102fd0000000000043460020010000000000000047
:102fe000444600200100000000000000454600208b
:102ff0000100000000000000464600200100000023
:1030000000000000ec45002004000000000000006b
:1030100060480020080000000100000053414d2ed0
:10302000496f5400f4470020140000000100000024
:1030300050c9020064c9020078c902008cc90200ac
:10304000a0c902001c480020100000000100000080
:10305000b8c90200c8c90200d8c90200e8c9020004
:10306000383600200002000000000000f04500207b
:10307000040000000000000047460020010000009e
:103080000000000048460020010000000000000091
:10309000604700201900000001000000736e30300e
:1030a0003030303030303030303030303030303020
:1030b0000000000000000000494600200100000060
:1030c00000000000600c0020000400000000000070
:1030d000b04800200400000001000000ffffffffd7
:1030e000b44800200400000001000000ffffffffc3
:1030f000b84800200400000001000000ffffffffaf
:10310000bc4800200400000001000000ffffffff9a
:10311000c04800200400000001000000ffffffff86
:10312000601000200600000000000000042d0020b8
:10313000ff03000000000000544800200c000000c5
:1031400001000000bc950000c0950000c49500007f
:103150007c4700201900000001000000424141416d
:1031600041414444314442414141444431440000de
:1031700000000000000000002c48002010000000ab
:1031800001000000302e302e302e300000000000f4
:1031900000000000f44500200400000000000000d2
:1031a0007b4700200100000001000000010000003a
:1031b000c44800200400000001000000ffffffffe2
:1031c0004a4600200100000000000000c84800201e
:1031d0000400000001000000ffffffff4b4600203d
:1031e00001000000000000004c460020010000002b
:1031f00000000000f845002004000000000000006e
:10320000cc48002004000000010000000a0000007b
:103210004d46002001000000000000006810002062
:103220000e0000000000000008480020140000000c
:1032300001000000785700008c570000a0570000e4
:10324000b4570000c8570000fc45002004000000ef
:10325000000000006c3e0020800000000000000024
:10326000ec3e002080000000000000006c3f0020c9
:1032700080000000000000007c1800208004000096
:1032800000000000ec3f0020800000000000000073
:103290003838002000020000000000006c400020d0
:1032a0008000000000000000ec40002080000000d2
:1032b00000000000004600200400000000000000a4
:1032c0001c450020100000000000000038450020d0
:1032d0000c000000000000006c4100208000000095
:1032e0000000000004460020040000000000000070
:1032f000d04800200400000001000000ffffffff95
:1033000078100020010000000000000008460020a6
:1033100004000000000000000c4600200400000033
:10332000000000004c42002050000000000000009f
:103330002834002010020000000000004047002058
:103340002000000001000000010000000300000058
:10335000000000000000000000000000000000006d
:1033600000000000644500206445002008000000c3
:1033700000000000104600200400000000000000d3
:103380006c4300202c000000000000009843002047
:103390002c00000000000000144600200400000083
:1033a000000000006c450020080000000000000044
:1033b000ff4400201a000000000000001846002012
:1033c00004000000000000005046002060000000e3
:1033d00001000000010000000300000000000000e8
:1033e00000000000000000000000000000000000dd
:1033f000fd44030000000000000000000000000089
:10340000619703001968030000000000000000003d
:1034100000000000000000000000000000000000ac
:10342000000000000000000000000000000000009c
:1034300000000000b0460020600000000100000015
:103440000100000003000000000000000000000078
:10345000000000000000000000000000fd44030028
:103460000000000000000000000000006197030061
:1034700019680300000000000000000000000000c8
:10348000000000000000000000000000000000003c
:10349000000000000000000000000000000000002c
:1034a0001c46002004000000000000000000000096
:1034b00000000000444444444444444444444444dc
:020000040000fa
:1034c0002e2e2f7372632f636f6e6669672f5341c1
:1034d0004d4432315f57475f494f542f6c696272d8
:1034e0006172792f43727970746f617574686c6959
:1034f000622f63616c69622f63616c69625f7772ce
:103500006974652e633a36383a25783a4e554c4cf4
:1035100020706f696e746572207265636569766587
:10352000640a00002e2e2f7372632f636f6e66691c
:10353000672f53414d4432315f57475f494f542ff6
:103540006c6962726172792f43727970746f617500
:1035500074686c69622f63616c69622f63616c6966
:10356000625f77726974652e633a39343a25783a26
:1035700061745772697465202d206661696c656499
:103580000a00c0462e2e2f7372632f636f6e66691a
:10359000672f53414d4432315f57475f494f542f96
:1035a0006c6962726172792f43727970746f6175a0
:1035b00074686c69622f63616c69622f63616c6906
:1035c000625f77726974652e633a3130303a2578dc
:1035d0003a63616c69625f7772697465202d20655a
:1035e0007865637574696f6e206661696c65640add
:1035f0000000c0462e2e2f7372632f636f6e6669b4
:10360000672f53414d4432315f57475f494f542f25
:103610006c6962726172792f43727970746f61752f
:1036200074686c69622f63616c69622f63616c6995
:10363000625f77726974652e633a3133333a257865
:103640003a4e554c4c20706f696e746572207265ed
:103650006365697665640a002e2e2f7372632f638b
:103660006f6e6669672f53414d4432315f57475f34
:10367000494f542f6c6962726172792f437279706d
:10368000746f617574686c69622f63616c69622f15
:1036900063616c69625f77726974652e633a313376
:1036a000383a25783a496e76616c6964206c656eab
:1036b0006774682072656365697665640a00c04650
:1036c0002e2e2f7372632f636f6e6669672f5341bf
:1036d0004d4432315f57475f494f542f6c696272d6
:1036e0006172792f43727970746f617574686c6957
:1036f000622f63616c69622f63616c69625f7772cc
:103700006974652e633a3134363a25783a63616cd0
:1037100069625f6765745f61646472202d20666111
:10372000696c65640a00c0462e2e2f7372632f6386
:103730006f6e6669672f53414d4432315f57475f63
:10374000494f542f6c6962726172792f437279709c
:10375000746f617574686c69622f63616c69622f44
:1037600063616c69625f77726974652e633a3231a6
:10377000313a25783a4e554c4c20706f696e74651d
:10378000722072656365697665640a002e2e2f7358
:1037900072632f636f6e6669672f53414d443231f8
:1037a0005f57475f494f542f6c6962726172792f7e
:1037b00043727970746f617574686c69622f6361ac
:1037c0006c69622f63616c69625f77726974652ee0
:1037d000633a3231383a25783a63616c69625f72d4
:1037e0006561645f7a6f6e65202d206661696c6526
:1037f000640a00002e2e2f7372632f636f6e66694a
:10380000672f53414d4432315f57475f494f542f23
:103810006c6962726172792f43727970746f61752d
:1038200074686c69622f63616c69622f63616c6993
:10383000625f77726974652e633a3233373a25785e
:103840003a4e6f6e6365206661696c65640a0000bc
:103850002e2e2f7372632f636f6e6669672f53412d
:103860004d4432315f57475f494f542f6c69627244
:103870006172792f43727970746f617574686c69c5
:10388000622f63616c69622f63616c69625f77723a
:103890006974652e633a3234343a25783a43616c60
:1038a000632054656d704b6579206661696c656451
:1038b0000a00c0462e2e2f7372632f636f6e6669e7
:1038c000672f53414d4432315f57475f494f542f63
:1038d0006c6962726172792f43727970746f61756d
:1038e00074686c69622f63616c69622f63616c69d3
:1038f000625f77726974652e633a3235373a25789c
:103900003a47656e446967206661696c65640a00c0
:103910002e2e2f7372632f636f6e6669672f53416c
:103920004d4432315f57475f494f542f6c69627283
:103930006172792f43727970746f617574686c6904
:10394000622f63616c69622f63616c69625f777279
:103950006974652e633a3237343a25783a61746374
:1039600061685f67656e5f646967282920666169c1
:103970006c65640a0000c0462e2e2f7372632f639d
:103980006f6e6669672f53414d4432315f57475f11
:10399000494f542f6c6962726172792f437279704a
:1039a000746f617574686c69622f63616c69622ff2
:1039b00063616c69625f77726974652e633a32384d
:1039c000313a25783a47657420616464726573738f
:1039d000206661696c65640a0000c0462e2e2f7354
:1039e00072632f636f6e6669672f53414d443231a6
:1039f0005f57475f494f542f6c6962726172792f2c
:103a000043727970746f617574686c69622f636159
:103a10006c69622f63616c69625f77726974652e8d
:103a2000633a3239363a25783a43616c63756c6192
:103a300074652041757468204d4143206661696c4e
:103a400065640a002e2e2f7372632f636f6e666992
:103a5000672f53414d4432315f57475f494f542fd1
:103a60006c6962726172792f43727970746f6175db
:103a700074686c69622f63616c69622f63616c6941
:103a8000625f77726974652e633a3333343a25780e
:103a90003a4e554c4c20706f696e74657220726599
:103aa0006365697665640a002e2e2f7372632f6337
:103ab0006f6e6669672f53414d4432315f57475fe0
:103ac000494f542f6c6962726172792f4372797019
:103ad000746f617574686c69622f63616c69622fc1
:103ae00063616c69625f77726974652e633a33341f
:103af000323a25783a63616c69625f6765745f7a10
:103b00006f6e655f73697a65202d206661696c65eb
:103b1000640a00002e2e2f7372632f636f6e666926
:103b2000672f53414d4432315f57475f494f542f00
:103b30006c6962726172792f43727970746f61750a
:103b400074686c69622f63616c69622f63616c6970
:103b5000625f77726974652e633a3334393a257837
:103b60003a63616c69625f77726974655f627974e8
:103b700065735f7a6f6e65202d206661696c656480
:103b80000a00c0462e2e2f7372632f636f6e666914
:103b9000672f53414d4432315f57475f494f542f90
:103ba0006c6962726172792f43727970746f61759a
:103bb00074686c69622f63616c69622f63616c6900
:103bc000625f77726974652e633a3335363a2578c9
:103bd0003a63616c69625f7570646174656578747d
:103be0007261202d206661696c65640a0000c04620
:103bf0002e2e2f7372632f636f6e6669672f53418a
:103c00004d4432315f57475f494f542f6c696272a0
:103c10006172792f43727970746f617574686c6921
:103c2000622f63616c69622f63616c69625f777296
:103c30006974652e633a3336323a25783a63616c9b
:103c400069625f7570646174656578747261202d56
:103c5000206661696c65640a0000c0462e2e2f73d1
:103c600072632f636f6e6669672f53414d44323123
:103c70005f57475f494f542f6c6962726172792fa9
:103c800043727970746f617574686c69622f6361d7
:103c90006c69622f63616c69625f77726974652e0b
:103ca000633a3430323a25783a496e76616c696409
:103cb000207a6f6e652072656365697665640a00b7
:103cc0002e2e2f7372632f636f6e6669672f5341b9
:103cd0004d4432315f57475f494f542f6c696272d0
:103ce0006172792f43727970746f617574686c6951
:103cf000622f63616c69622f63616c69625f7772c6
:103d00006974652e633a3430363a25783a496e76ce
:103d1000616c696420736c6f742072656365697689
:103d200065640a002e2e2f7372632f636f6e6669af
:103d3000672f53414d4432315f57475f494f542fee
:103d40006c6962726172792f43727970746f6175f8
:103d500074686c69622f63616c69622f63616c695e
:103d6000625f77726974652e633a3431343a25782c
:103d70003a4e554c4c20706f696e746572207265b6
:103d80006365697665640a002e2e2f7372632f6354
:103d90006f6e6669672f53414d4432315f57475ffd
:103da000494f542f6c6962726172792f4372797036
:103db000746f617574686c69622f63616c69622fde
:103dc00063616c69625f77726974652e633a34313e
:103dd000383a25783a45697468657220496e76618b
:103de0006c6964206c656e677468206f72206f6602
:103df000667365742072656365697665640a0000a0
:103e00002e2e2f7372632f636f6e6669672f534177
:103e10004d4432315f57475f494f542f6c6962728e
:103e20006172792f43727970746f617574686c690f
:103e3000622f63616c69622f63616c69625f777284
:103e40006974652e633a3432353a25783a63616c89
:103e500069625f6765745f7a6f6e655f73697a65c3
:103e6000202d206661696c65640a00002e2e2f7378
:103e700072632f636f6e6669672f53414d44323111
:103e80005f57475f494f542f6c6962726172792f97
:103e900043727970746f617574686c69622f6361c5
:103ea0006c69622f63616c69625f77726974652ef9
:103eb000633a3433303a25783a496e76616c6964f6
:103ec00020706172616d65746572207265636569e9
:103ed0007665640a0000c0462e2e2f7372632f632e
:103ee0006f6e6669672f53414d4432315f57475fac
:103ef000494f542f6c6962726172792f43727970e5
:103f0000746f617574686c69622f63616c69622f8c
:103f100063616c69625f77726974652e633a3434e9
:103f2000333a25783a63616c69625f7772697465c8
:103f30005f7a6f6e65202d206661696c65640a008a
:103f40002e2e2f7372632f636f6e6669672f534136
:103f50004d4432315f57475f494f542f6c6962724d
:103f60006172792f43727970746f617574686c69ce
:103f7000622f63616c69622f63616c69625f777243
:103f80006974652e633a3435363a25783a63616c44
:103f900069625f77726974655f7a6f6e65202d2044
:103fa0006661696c65640a002e2e2f7372632f633d
:103fb0006f6e6669672f53414d4432315f57475fdb
:103fc000494f542f6c6962726172792f4372797014
:103fd000746f617574686c69622f63616c69622fbc
:103fe00063616c69625f77726974652e633a343914
:103ff000373a25783a45697468657220696e76614a
:104000006c696420636f756e746572206964206fdb
:104010007220636f756e7465722076616c756520b1
:1040200072656365697665640a00c0462e2e2f733b
:1040300072632f636f6e6669672f53414d4432314f
:104040005f57475f494f542f6c6962726172792fd5
:1040500043727970746f617574686c69622f636103
:104060006c69622f63616c69625f77726974652e37
:10407000633a313032393a25783a4e554c4c2070fb
:104080006f696e7465722072656365697665640a2e
:104090000000c0462e2e2f7372632f636f6e666909
:1040a000672f53414d4432315f57475f494f542f7b
:1040b0006c6962726172792f43727970746f617585
:1040c00074686c69622f63616c69622f63616c69eb
:1040d000625f77726974652e633a313034363a25ff
:1040e000783a63616c69625f77726974655f7a6f51
:1040f0006e65202d206661696c65640a0000c0460b
:104100002e2e2f7372632f636f6e6669672f534174
:104110004d4432315f57475f494f542f6c6962728b
:104120006172792f43727970746f617574686c690c
:10413000622f63616c69622f63616c69625f726593
:1041400061642e633a37303a25783a4e554c4c200c
:10415000706f696e746572207265636569766564f7
:104160000a00c0462e2e2f7372632f636f6e66692e
:10417000672f53414d4432315f57475f494f542faa
:104180006c6962726172792f43727970746f6175b4
:1041900074686c69622f63616c69622f63616c691a
:1041a000625f726561642e633a37313a25783a4e20
:1041b000554c4c20706f696e746572207265636532
:1041c000697665640a00c0462e2e2f7372632f63d2
:1041d0006f6e6669672f53414d4432315f57475fb9
:1041e000494f542f6c6962726172792f43727970f2
:1041f000746f617574686c69622f63616c69622f9a
:1042000063616c69625f726561642e633a37363a46
:1042100025783a63616c69625f6765745f616464a5
:1042200072202d206661696c65640a002e2e2f7342
:1042300072632f636f6e6669672f53414d4432314d
:104240005f57475f494f542f6c6962726172792fd3
:1042500043727970746f617574686c69622f636101
:104260006c69622f63616c69625f726561642e6361
:104270003a39323a25783a617452656164202d20ca
:104280006661696c65640a002e2e2f7372632f635a
:104290006f6e6669672f53414d4432315f57475ff8
:1042a000494f542f6c6962726172792f4372797031
:1042b000746f617574686c69622f63616c69622fd9
:1042c00063616c69625f726561642e633a39383a82
:1042d00025783a63616c69625f726561645f7a6fc9
:1042e0006e65202d20657865637574696f6e206634
:1042f00061696c65640a00002e2e2f7372632f6350
:104300006f6e6669672f53414d4432315f57475f87
:10431000494f542f6c6962726172792f43727970c0
:10432000746f617574686c69622f63616c69622f68
:1043300063616c69625f726561642e633a31323425
:104340003a25783a4e554c4c20706f696e74657200
:104350002072656365697665640a00002e2e2f73ee
:1043600072632f636f6e6669672f53414d4432311c
:104370005f57475f494f542f6c6962726172792fa2
:1043800043727970746f617574686c69622f6361d0
:104390006c69622f63616c69625f726561642e6330
:1043a0003a3133313a25783a63616c69625f7265fc
:1043b00061645f7a6f6e65202d206661696c65644b
:1043c0000a00c0462e2e2f7372632f636f6e6669cc
:1043d000672f53414d4432315f57475f494f542f48
:1043e0006c6962726172792f43727970746f617552
:1043f00074686c69622f63616c69622f63616c69b8
:10440000625f726561642e633a3138353a25783ad5
:104410004e554c4c20706f696e74657220726563e6
:1044200065697665640a00002e2e2f7372632f6310
:104430006f6e6669672f53414d4432315f57475f56
:10444000494f542f6c6962726172792f437279708f
:10445000746f617574686c69622f63616c69622f37
:1044600063616c69625f726561642e633a313932ef
:104470003a25783a63616c69625f726561645f7a5c
:104480006f6e65202d206661696c65640a00c04608
:104490002e2e2f7372632f636f6e6669672f5341e1
:1044a0004d4432315f57475f494f542f6c696272f8
:1044b0006172792f43727970746f617574686c6979
:1044c000622f63616c69622f63616c69625f726500
:1044d00061642e633a3230313a25783a4e6f6e631a
:1044e00065206661696c65640a00c0462e2e2f73d4
:1044f00072632f636f6e6669672f53414d4432318b
:104500005f57475f494f542f6c6962726172792f10
:1045100043727970746f617574686c69622f63613e
:104520006c69622f63616c69625f726561642e639e
:104530003a3231343a25783a43616c632054656de0
:10454000704b6579206661696c65640a0000c0463d
:104550002e2e2f7372632f636f6e6669672f534120
:104560004d4432315f57475f494f542f6c69627237
:104570006172792f43727970746f617574686c69b8
:10458000622f63616c69622f63616c69625f72653f
:1045900061642e633a3232363a25783a47656e4482
:1045a0006967206661696c65640a00002e2e2f73ae
:1045b00072632f636f6e6669672f53414d443231ca
:1045c0005f57475f494f542f6c6962726172792f50
:1045d00043727970746f617574686c69622f63617e
:1045e0006c69622f63616c69625f726561642e63de
:1045f0003a3234323a25783a0a00c0462e2e2f73ca
:1046000072632f636f6e6669672f53414d44323179
:104610005f57475f494f542f6c6962726172792fff
:1046200043727970746f617574686c69622f63612d
:104630006c69622f63616c69625f726561642e638d
:104640003a3234383a25783a5265616420656e63af
:10465000727970746564206661696c65640a000033
:104660002e2e2f7372632f636f6e6669672f53410f
:104670004d4432315f57475f494f542f6c69627226
:104680006172792f43727970746f617574686c69a7
:10469000622f63616c69622f63616c69625f72652e
:1046a00061642e633a3239383a25783a496e766138
:1046b0006c6964207a6f6e652072656365697665e2
:1046c000640a00002e2e2f7372632f636f6e66696b
:1046d000672f53414d4432315f57475f494f542f45
:1046e0006c6962726172792f43727970746f61754f
:1046f00074686c69622f63616c69622f63616c69b5
:10470000625f726561642e633a3239393a25783acc
:10471000496e76616c696420736c6f742072656396
:1047200065697665640a00002e2e2f7372632f630d
:104730006f6e6669672f53414d4432315f57475f53
:10474000494f542f6c6962726172792f437279708c
:10475000746f617574686c69622f63616c69622f34
:1047600063616c69625f726561642e633a333036ef
:104770003a25783a4e554c4c20706f696e746572cc
:104780002072656365697665640a00002e2e2f73ba
:1047900072632f636f6e6669672f53414d443231e8
:1047a0005f57475f494f542f6c6962726172792f6e
:1047b00043727970746f617574686c69622f63619c
:1047c0006c69622f63616c69625f726561642e63fc
:1047d0003a3331323a25783a63616c69625f6765d2
:1047e000745f7a6f6e655f73697a65202d206661ec
:1047f000696c65640a00c0462e2e2f7372632f63a6
:104800006f6e6669672f53414d4432315f57475f82
:10481000494f542f6c6962726172792f43727970bb
:10482000746f617574686c69622f63616c69622f63
:1048300063616c69625f726561642e633a3331371c
:104840003a25783a496e76616c69642070617261cc
:104850006d657465722072656365697665640a00ca
:104860002e2e2f7372632f636f6e6669672f53410d
:104870004d4432315f57475f494f542f6c69627224
:104880006172792f43727970746f617574686c69a5
:10489000622f63616c69622f63616c69625f72652c
:1048a00061642e633a3333333a25783a63616c6935
:1048b000625f726561645f7a6f6e65202d2066614c
:1048c0006c6965640a00c0462e2e2f7372632f63d5
:1048d0006f6e6669672f53414d4432315f57475fb2
:1048e000494f542f6c6962726172792f43727970eb
:1048f000746f617574686c69622f63616c69622f93
:1049000063616c69625f726561642e633a34383446
:104910003a25783a4e554c4c20706f696e7465722a
:104920002072656365697665640a00002e2e2f7318
:1049300072632f636f6e6669672f53414d44323146
:104940005f57475f494f542f6c6962726172792fcc
:1049500043727970746f617574686c69622f6361fa
:104960006c69622f63616c69625f726561642e635a
:104970003a3439303a25783a496e76616c69642068
:10498000736c6f742072656365697665640a0000f4
:104990002e2e2f7372632f636f6e6669672f5341dc
:1049a0004d4432315f57475f494f542f6c696272f3
:1049b0006172792f43727970746f617574686c6974
:1049c000622f63616c69622f63616c69625f7265fb
:1049d00061642e633a3439373a25783a63616c69f9
:1049e000625f726561645f7a6f6e65202d2066611b
:1049f000696c65640a00c0462e2e2f7372632f63a4
:104a00006f6e6669672f53414d4432315f57475f80
:104a1000494f542f6c6962726172792f43727970b9
:104a2000746f617574686c69622f63616c69622f61
:104a300063616c69625f726561642e633a3530341c
:104a40003a25783a63616c69625f726561645f7a86
:104a50006f6e65202d206661696c65640a00c04632
:104a60002e2e2f7372632f636f6e6669672f53410b
:104a70004d4432315f57475f494f542f6c69627222
:104a80006172792f43727970746f617574686c69a3
:104a9000622f63616c69622f63616c69625f72652a
:104aa00061642e633a3839313a25783a5265616447
:104ab00020636f6e666967207a6f6e652066616934
:104ac0006c65640a0000c0462e2e2f7372632f633c
:104ad0006f6e6669672f53414d4432315f57475fb0
:104ae000494f542f6c6962726172792f43727970e9
:104af000746f617574686c69622f63616c69622f91
:104b000063616c69625f726561642e633a39363045
:104b10003a25783a4e554c4c20706f696e74657228
:104b20002072656365697665640a00002e2e2f7316
:104b300072632f636f6e6669672f53414d44323144
:104b40005f57475f494f542f6c6962726172792fca
:104b500043727970746f617574686c69622f6361f8
:104b60006c69622f63616c69625f726561642e6358
:104b70003a3936353a25783a496e76616c6964205f
:104b8000736c6f742072656365697665640a0000f2
:104b90002e2e2f7372632f636f6e6669672f5341da
:104ba0004d4432315f57475f494f542f6c696272f1
:104bb0006172792f43727970746f617574686c6972
:104bc000622f63616c69622f63616c69625f7265f9
:104bd00061642e633a3937383a25783a63616c69f3
:104be000625f726561645f7a6f6e65202d20666119
:104bf000696c65640a00c0462e2e2f7372632f63a2
:104c00006f6e6669672f53414d4432315f57475f7e
:104c1000494f542f6c6962726172792f43727970b7
:104c2000746f617574686c69622f63616c69622f5f
:104c300063616c69625f726561642e633a3939320f
:104c40003a25783a63616c69625f726561645f7a84
:104c50006f6e65202d206661696c65640a00c04630
:104c60002e2e2f7372632f636f6e6669672f534109
:104c70004d4432315f57475f494f542f6c69627220
:104c80006172792f43727970746f617574686c69a1
:104c9000622f63616c69622f63616c69625f726528
:104ca00061642e633a313031313a25783a63616c70
:104cb00069625f726561645f7a6f6e65202d206640
:084cc00061696c65640a0000e3
:020000040000fa
:104cc800f0b5d7b004af78607b681b88002b09d19a
:104cd800dd4b1a00002105201ff054fc80235b02e5
:104ce80000f01dfd7b681b88d84a002105201ff0b5
:104cf80049fc80239a00d64b0021180034f092fc1e
:104d08009824381980239a00d14b190031f0c6fc39
:104d18003b19a822b81819685a682ef0a7f9030099
:104d2800a22464003a1913603b191b689e225200a2
:104d3800b9180b60bb181b68db0fdbb2002b09d05e
:104d4800c44b1a00032101201ff01cfc3b191b68ef
:104d580000f0e5fc7b681b7804221340dbb2002bd3
:104d680034d0bd4b1b681d007b685b689c46bb4a02
:104d7800a823fc18ba4908236b4441c941c36346b8
:104d88000193c82300932b0011685268200026f075
:104d9800c3f90300a2225200b9180b60bb181b68a4
:104da8009c214900781803607b181b68db0fdbb275
:104db800002b43d01400bb181b68aa4a032101200a
:104dc8001ff0e0fb3b191b6800f0a9fc7b681b780f
:104dd80002221340dbb2002b30d09f4b1b681c0013
:104de8009e4aa823f8189e4908236b4460c960c3eb
:104df80001230193c823009323001168526826f009
:104e08008bf90300a2225200b9180b60bb181b686b
:104e18009a214900781803607b181b68db0fdbb206
:104e2800002b0bd01400bb181b688e4a03210120ed
:104e38001ff0a8fb3b191b6800f071fc7b689b689e
:104e4800013341d0884bdb781b075b0fdbb29bb289
:104e5800180032f0bbf80300a0225200b9180b600a
:104e68007b685b689c46bb181d68804aa823fc18b1
:104e78007b4908236b4441c941c363460193c82356
:104e880000932b0011685268200026f045f90300b2
:104e9800a2225200b9180b60bb181b689821490060
:104ea800781803607b181b68db0fdbb2002b50d02f
:104eb8001400bb181b686e4a032101201ff062fb17
:104ec8003b191b6800f02bfc7b681b7802221340ff
:104ed800dbb2002b3dd0644bdb781b075b0fdbb2ea
:104ee8009bb2180032f072f80300a0225200b918e1
:104ef8000b60bb181c685d4aa823f818584908239a
:104f08006b4460c960c301230193c8230093230045
:104f18001168526826f000f90300a2225200b9185d
:104f28000b60bb181b6896214900781803607b1832
:104f38001b68db0fdbb2002b0bd01400bb181b68ff
:104f48004b4a032101201ff01dfb3b191b6800f091
:104f5800e6fb7b681b7810221340dbb2002b3ad0ab
:104f68007b681b69dbb2180033f0d2fc34f04afad4
:104f780003001d007b685b689c463e4aa823fc181a
:104f8800374908236b4441c941c363460193c82389
:104f980000932b0011685268200026f0bdf803002a
:104fa800a2225200b9180b60bb181b689421490053
:104fb800781803607b181b68db0fdbb2002b5dd011
:104fc8001400bb181b682c4a032101201ff0dafad1
:104fd8003b191b68a3e37b681b7802221340dbb2f2
:104fe800002b4bd034f00efa03001c00214aa823f2
:104ff800f8181b4908236b4460c960c30123019357
:10500800c823009323001168526826f085f803002e
:10501800a2225200b9180b60bb181b6892214900e4
:10502800781803607b181b68db0fdbb2002b25d0d8
:105038001400bb181b68104a032101201ff0a2fab4
:105048003b191b686be3c046d0210000f02100002b
:105058003838002018220000cc480020149903009a
:10506800a4990300582200006010002054990300fe
:10507800a822000064990300f02200007b681b78d6
:1050880002221340dbb2002b04d17b681b7b5bb28e
:10509800013325d07b681b7b5bb2be4aa8217818f8
:1050a800116852682df0a6fb0300a2225200b9181d
:1050b8000b60bb181b6890214900781803607b18a7
:1050c8001b68db0fdbb2002b0ad01400bb181b686f
:1050d800b14a032101201ff055fa3b191b681ee352
:1050e8007b681b7802221340dbb2002b04d17b685b
:1050f8005b7b5bb2013325d07b685b7b5bb2a74ae5
:10510800a8217818116852682df074fb0300a222b8
:105118005200b9180b60bb181b688e21490078181b
:1051280003607b181b68db0fdbb2002b0ad014006e
:10513800bb181b689a4a032101201ff023fa3b1968
:105148001b68ece27b681b7802221340dbb2002b61
:1051580004d17b689b7b5bb2013325d07b689b7b4a
:105168005bb2904aa8217818116852682df042fb6a
:105178000300a2225200b9180b60bb181b688c21cf
:105188004900781803607b181b68db0fdbb2002b23
:105198000ad01400bb181b68834a032101201ff0a2
:1051a800f1f93b191b68bae27b681b7802221340ad
:1051b800dbb2002b06d17b681b7820221340dbb2c0
:1051c800002b34d0e0243b19784a110018002ff046
:1051d800bff93b19764aa8217c18694658680860c7
:1051e8001b681168526820002af0f5fe0300a2220d
:1051f8005200b9180b60bb181b688a21490078183f
:1052080003607b181b68db0fdbb2002b0ad014008d
:10521800bb181b68674a032101201ff0b3f93b192b
:105228001b687ce2644b5a7801210a435a707b68f8
:105238001b7840221340dbb2002b24d07b685b6aca
:105248005e4aa8217818116852682df0d3fa030035
:10525800a2225200b9180b60bb181b6888214900ac
:10526800781803607b181b68db0fdbb2002b0ad0b1
:105278001400bb181b68524a032101201ff082f951
:105288003b191b684be27b681b787f229343dbb298
:10529800002b24d07b689b6a4a4aa8217818116899
:1052a80052682df0a7fa0300a2225200b9180b6029
:1052b800bb181b6886214900781803607b181b6897
:1052c800db0fdbb2002b0ad01400bb181b683e4a68
:1052d800032101201ff056f93b191b681fe27b6868
:1052e8001b7802221340dbb2002b06d17b685b7867
:1052f80001221340dbb2002b70d07b685b7801225f
:105308001340dbb2002b69d07b68da6a2f495c2432
:105318003b19180033f08cff012031f0c5fb3b1915
:10532800190000202df052fc002031f0bdfb7b68f5
:10533800dd6a7b685b689c46254aa823fc182549da
:1053480008236b4441c941c363460193c8230093b2
:105358002b0011685268200025f0defe0300a2220f
:105368005200b9180b60bb181b68842149007818d3
:1053780003607b181b68db0fdbb2002b2ed01400f8
:10538800bb181b68144a032101201ff0fbf83b19c6
:105398001b68c4e15c9903003823000044990300aa
:1053a8007c2300004c990300c02300002c480020f7
:1053b8006c990300082400007410002074990300fd
:1053c800502400007c990300a0240000f024000071
:1053d80084990300a4990300002500007b681b78ca
:1053e80002221340dbb2002b06d17b685b780222d5
:1053f8001340dbb2002b4cd07b685b780222134051
:10540800dbb2002b45d07b681a6bc74948243b198f
:10541800180033f00dff012031f046fb3b1919004d
:1054280000202df0d3fb002031f03efb7b681d6b84
:105438007b685b689c46bd4aa823fc18bc490823c6
:105448006b4441c941c363460193c82300932b00b1
:1054580011685268200025f05ffe0300a222520066
:10546800b9180b60bb181b68791dff310b607b1dd9
:10547800ff331b68db0fdbb2002b0ad01400bb180c
:105488001b68ac4a032101201ff07cf83b191b68fc
:1054980045e17b681b7802221340dbb2002b06d162
:1054a8007b685b7804221340dbb2002b37d07b6823
:1054b8005a6ba14b1a60a04b1b681d007b685b6888
:1054c8009c469e4aa823fc18994908236b4441c965
:1054d80041c363460193c82300932b0011685268a7
:1054e800200025f019fe0300a2225200b9180b6013
:1054f800bb181b68791cff310b607b1cff331b68d2
:10550800db0fdbb2002b0ad01400bb181b688c4ad7
:10551800032101201ff036f83b191b68ffe07b6868
:105528001b7802221340dbb2002b67d0854ba422e4
:1055380052009446bc44634400221a605a609a6040
:10554800da601a820c23fb1818001bf07dfa7e4bd8
:10555800a42252009446bc4463441b791c007a4b35
:10556800a42252009446bc4463445b791d00764be8
:10557800a42252009446bc4463449b791a00724b9f
:10558800a42149008c46bc4463441b8c6f493426d3
:10559800b819019300922b00220033f049fee82449
:1055a8003b19ba19110018002ef0d2ff3b19684aae
:1055b800a8217c186946586808601b6811685268f9
:1055c80020002af008fd0300a2225200b9180b603f
:1055d800bb181b68fc21781803607b181b68db0f5d
:1055e800dbb2002b0ad01400bb181b68594a0321f0
:1055f80001201ef0c7ff3b191b6890e0a823fa188a
:10560800554b110018002ff0a9fd0300a2225200eb
:10561800b9180b60bb181b68f821781803607b1851
:105628001b68db0fdbb2002b0ad01400bb181b6809
:105638004a4a032101201ef0a5ff3b191b686ee0b2
:10564800a823fb18f422b9180b60bb181b689b68c9
:1056580090243819ba181268009300231168526808
:105668001cf03afd70203b1821007a1830ca30c36c
:105678003b185b681a0080239b009a420dd978205a
:105688003b187a1812ca12c33b185b68344a0321c4
:1056980001201ef077ff334b41e0a0243b1918008e
:1056a8002af068f930493a192b48002301938023de
:1056b80000930b001168526831f0b2fe0300a22477
:1056c80064003a1913603b191b68f022b9180b6083
:1056d800bb181b68db0fdbb2002b08d0234b1a006a
:1056e800032101201ef04eff3b191b6817e088219b
:1056f8007b1890203a1830ca30c37b181968802468
:105708003b193a1821ca21c33b195b689ab216485b
:10571800012332f051f8a2235b00fb181b68180024
:10572800bd4653b0f0bdc046502500008c9903001b
:10573800a499030060250000044600209c990300fa
:10574800b0250000ecfeffffc4feffff04260000aa
:105758009499030010260000d00200205c26000067
:105768009826000002000180ec3f0020bc260000c3
:020000040000fa
:105778001b5b33376d20204e4f4e451b5b33376d17
:105788000000c0461b5b33316d204552524f521bff
:105798005b33376d0000c0461b5b33336d202057e9
:1057a80041524e1b5b33376d0000c0461b5b3336de
:1057b8006d2044454255471b5b33376d0000c0469a
:1057c8001b5b33376d2020494e464f1b5b32376dcc
:1057d8001b5b33376d00c0461b5b33376d20494e6a
:1057e800464f1b5b33376d001b5b33326d20474fd1
:1057f8004f441b5b33376d001b5b33336d205741c0
:10580800524e1b5b33376d001b5b33316d1b5b37af
:105818006d4552524f521b5b32376d1b5b33376df0
:105828000000c046696e697469616c5f67657400e1
:10583800322e3000322e302e3000c04670726f701b
:10584800657274790000c0463a2053656e64206121
:105858006e64207265636569766520646576696340
:10586800652070726f70657274792066726f6d2032
:10587800636c6f7564202f2f55736167653a2070cc
:10588800726f7065727479203c696e6465783e2c1d
:10589800203c6461746128686578293e0000c04630
:1058a80074656c656d6574727900c0463a205365fd
:1058b8006e64206461746120746f20636c6f75641a
:1058c8002061732074656c656d65747279202f2f63
:1058d80055736167653a2074656c656d6574727996
:1058e800203c696e6465783e2c203c6461746128b4
:1058f800686578293e00c046696473636f70650007
:105908003a2047657420616e642053657420417a9b
:10591800757265204450532049442053636f706565
:10592800202f2f55736167653a20696473636f7020
:1059380065205b49442053636f70655d0000c04675
:105948007265636f6e6e65637400c0463a204d5190
:105958005454205265636f6e6e6563742000c046b0
:10596800776966690000c0463a2053657420576914
:1059780066692063726564656e7469616c73202f53
:105988002f55736167653a2077696669203c7373a0
:1059980069643e5b2c3c706173733e2c5b6175746b
:1059a80068547970655d5d200000c046636c6f7552
:1059b8006400c0463a20476574204d515454204332
:1059c8006f6e6e656374696f6e205374617475735e
:1059d8000000c0466b6579003a204765742045434e
:1059e80043205075626c6963204b65792000c0467e
:1059f80064657669636500003a204765742045430d
:105a0800432053657269616c204e6f2e2000c0469a
:105a1800636c695f76657273696f6e003a204765db
:105a28007420434c492076657273696f6e200000bc
:105a380076657273696f6e003a204765742046690f
:105a4800726d776172652076657273696f6e20007a
:105a5800646562756700c0463a2047657420616ec8
:105a68006420536574204465627567204c657665cb
:105a78006c2000000d0a4465766963652049440d71
:105a88000a00c0460d0a4f4b0d0a04000d0a556e58
:105a98006b6e6f776e2e0d0a0000c0460d0a434ce0
